:1000000068C700000C94DC350C94B1350C9486352F
:100010000C945B350C9430350C9405350C94DA3423
:100020000C94AF3487C7000085C7000083C7000069
:1000300081C700007FC700007DC700007BC70000AC
:1000400079C7000077C7000075C7000073C70000BC
:1000500071C700006FC700006DC700000C946534C5
:1000600069C700000C9496380C946D3863C7000083
:1000700061C700005FC700005DC700005BC70000EC
:1000800059C7000057C7000055C7000053C70000FC
:1000900051C700004FC700004DC700000C94D71F88
:1000A00049C7000047C7000045C7000043C700001C
:1000B00041C700003FC700003DC700003BC700002C
:1000C00039C7000037C7000035C7000033C700003C
:1000D00031C700002FC700002DC700002BC700004C
:1000E00029C7000005320832F731FB3101323F32B7
:1000F0000C32103216321A321E32243228322C328E
:100100003F32323236323A320102102020080810D3
:100110002040102040800201020108040201010277
:100120000408102040808040201008040201800450
:1001300002018040201008040201080402010102AB
:1001400004081020408001020408102040800000B4
:1001500020002300260029002C002F00320000017F
:10016000000003010601090105050505070508084A
:100170000808020202020A0A080804040404010131
:100180000101010101010303030303030303040746
:1001900007070C0C0C0C0C0C0C0C020202020606DD
:1001A0000606060606060B0B0B0B0B0B0B0B7472ED
:1001B00075650050696E203D2000496E7665727449
:1001C000203D2000456E61626C6564203D20005436
:1001D00068726573686F6C6448696768203D2000C9
:1001E0005468726573686F6C644C6F77203D2000B3
:1001F00066616C7365007472756500447572617434
:10020000696F6E203D20005374617274203D2000A0
:10021000436F756E74203D20004F75747075745077
:10022000696E203D2000456E61626C6564203D2052
:10023000004368616E6E656C200046616C736500FA
:100240005472756500536B697000456E61626C6530
:1002500064203A003C4261636B3E005772697465EA
:1002600020746F20534400526561642066726F6D84
:100270002053440053657420436C6F636B005365D7
:100280007474696E67730000203C4261636B3E00CA
:100290003C4261636B3E00000000002042726967CF
:1002A00068746E657373003C4261636B3E000000CE
:1002B00000204D6F76656D656E74003C4261636B26
:1002C0003E0000000000205261696E003C42616304
:1002D0006B3E0000000000204D6F697374757265FD
:1002E0000000000000004368616E6E656C00486F9E
:1002F0006D650046616C7365005472756500456EEE
:1003000061626C6564203A0046616C7365005472EA
:10031000756500496E7665727465643A00EE02E6B2
:1003200002E502E402E302E202E102D702D602D5CC
:1003300002D402D302CC02C602C502C402C302C266
:1003400002BB02B102B002AF02AE02A7029B029A48
:10035000029902980297029002880287027E027434
:100360000267025B025402446F6E65005365747449
:10037000696E6720757020492F4F7300446F6E655A
:1003800000436F756C64206E6F7420726561642029
:1003900053440052656164696E672066726F6D2018
:1003A00053440057616974696E6720666F72205309
:1003B0004400556E6B6E6F776E204572726F7200DF
:1003C00050617273696E6720636F6E66696720663D
:1003D000696C65007C3C3E5E2B3D3F2F5B5D3B2C9A
:1003E0002A225C004272696768746E657373546890
:1003F000726573686F6C6448696768004272696708
:1004000068746E6573735468726573686F6C644C5E
:100410006F77004272696768746E65737350696EB6
:10042000004272696768746E657373496E766572AF
:1004300074004272696768746E657373456E6162B9
:100440006C6564005261696E5468726573686F6CA4
:100450006448696768005261696E546872657368C0
:100460006F6C644C6F77005261696E50696E005218
:1004700061696E496E76657274005261696E456E8F
:1004800061626C6564004D6F697374757265546860
:10049000726573686F6C6448696768004D6F697353
:1004A000747572655468726573686F6C644C6F77AD
:1004B000004D6F69737475726550696E004D6F6998
:1004C0007374757265496E76657274004D6F6973E9
:1004D00074757265456E61626C6564004D6F76651A
:1004E0006D656E7444656C6179004D6F76656D6500
:1004F0006E7450696E004D6F76656D656E74496EF1
:1005000076657274004D6F76656D656E74456E61CB
:10051000626C656400466C6F77436F756E7400544F
:10052000696D654475726174696F6E0054696D65BB
:100530005374617274004F757470757450696E00F5
:10054000456E61626C6564004368616E6E656C0047
:1005500000002100240027002A002D003000330075
:1005600001010000040107010A010000220025002A
:1005700028002B002E00310034000201000005018C
:1005800008010B0100000A0B02090C0D0E080703FD
:100590000401000000000000000000000000000056
:1005A000000000000000000000000000000000004B
:1005B0001211100000000000000000000000000008
:1005C0000000000000000000000050617273696EBE
:1005D0006720636F6E6669672066696C652E2E2ED4
:1005E0004661696C656400446F6E6500496E6974AC
:1005F00069616C697A696E67205254432E2E2E0011
:10060000446F6E6500496E697469616C697A696EE0
:1006100067204C43442E2E2E0046616C73650054B7
:1006200072756500456E61626C6564203A004661D2
:100630006C7365005472756500496E7665727465F9
:10064000643A0046616C7365005472756500456ECE
:1006500061626C6564203A0046616C736500547297
:10066000756500496E7665727465643A0046616C22
:100670007365005472756500456E61626C65642037
:100680003A0046616C7365005472756500496E7678
:1006900065727465643A004368616E6E656C005300
:1006A0006176696E6720746F2053440057616974E6
:1006B000696E6720666F72205344005761697469E0
:1006C0006E6720666F7220534400556E6B6E6F77B5
:1006D0006E204572726F72004E65787420203A2049
:1006E0004368004163746976653A00BF0003020302
:1006F00004030504060C00FE07FE08FF0142028603
:1007000007CC2005006A0721073943C7A004220748
:100710009B56476209230D35424F65504A4932289E
:100720001500240E4D3E57B654946C4B94CA1601D6
:10073000250A3D428734659D2601260D3D424F9690
:1007400044495649A4480927061957C700280BCB26
:100750003E571225512DCA02290CCB3E4716655132
:10076000254A22002A0B3D4257A5B2654B53042B64
:100770000A2D4657180D5218012C081B3E8F3224A3
:10078000002D060D4EC7202E069242C7102F0A3D9F
:1007900042671666C52C04300ABC428F12794A148F
:1007A000003108BB424F227519320A3D42CF928573
:1007B00059DB20330C3D42C7206699AA250B003433
:1007C0000C3D425F2625A564D0C204350B3D42C7CF
:1007D0007148432D5900360C3D42979485439269E8
:1007E000C902370B3D42C7206661169600380C3DA2
:1007F00042CF9269C99269C902390C3D42CF9269D0
:10080000C9106691043A08AA42C7100D013B09338A
:100810003E8F511912003C07AB4657522B3D081D25
:100820004AC7A00E023E08AB46475629013F0A3D83
:1008300042CF9235E65004400D3D42CF922943927B
:100840002843BA00410B3D42CF9269C390D902427E
:100850000D3D42C71055A264AA448302430A3D429B
:10086000CF92896DC902440F3D42C71055A2244A58
:10087000A2241A1400450B3D42C7311C92301C04BF
:10088000460A3D42C7311C92B008470B3D42CF9209
:1008900089A52D5900480A3D4247661B86CC16495A
:1008A00008BB42C71275194A0A3D42D716B6449191
:1008B000044B0D3D42472625252D892A59004C0819
:1008C0003D4247D8E3204D0A3D4247B62C89E61603
:1008D0004E0C3D4247A64D4A226D5A004F0A3D42FA
:1008E000CF92794B1600500C3D42C79064DAA08439
:1008F0004500510B3D42CF92B92452A404520D3D04
:1009000042C79064DAA0942A5900530B3D42CF921B
:10091000A9AB962C0054093D42C720853D015509DD
:100920003D4247E65BB200560B3D4247E696949245
:100930002C02570A3D4247E62551BA00580B3D426A
:1009400047A625B54A4D0B590A3D4247A625B5B0E5
:10095000095A0A3D42C720661D07015B08CB3EC706
:1009600010F5695C093D42471AA6C5345D08CB3EC7
:10097000C7D4A7215E081D565796D4025F060D3ACC
:10098000C72060069B564756610A2D42CF9A0C5AE3
:100990003204620C3D4247180E49661B1400630A7C
:1009A0002D42CF928959B200640A3D426765D06CEE
:1009B000C910650A2D42CF920D4ABA00660A3D421F
:1009C0009754C9B6B006670C3D3ACF92D992214CE4
:1009D0001600680A3D4247180E49E6166908BB42F0
:1009E0004F28B50C6A0ACC3A5FACB54989026B0B4B
:1009F0003D4247589392A992056C08BB4287D4CBDD
:100A0000006D0B2D4287D2A2244AA2146E092D42FA
:100A10004762D26C016F092D42CF92D99205700CBA
:100A20003D3AC79064B641094300710A3D3ACFA0F0
:100A3000D992212C72092D424762128B0073092D25
:100A400042CFA01E1400740A3D4257180D5258158B
:100A500075092D4247E6A42801760A2D4247664BC8
:100A60006A1100770A2D42476649942E00780A2DB4
:100A7000424796D42AB500790A3D3A47664B6A8DBB
:100A8000007A092D42C7A0B50D027B0ACB3E571252
:100A900055B2A8167C06493FC7037D0BCB3E4716CF
:100AA000D592A812017E091D4A4FA4245202A00526
:100AB000006A07A1073943473208A20D3D3E57B6E9
:100AC000549428A96C1100A30C3D429754C9B63028
:100AD000521400A4092D4247D25BD203A50D3D421A
:100AE00047965406291AA43002A6063943C732A7EE
:100AF0000CC442CF102A9194884302A8068B5E470B
:100B000012A90F3E42CF908452A2445222264302A1
:100B1000AA08AB52CF926803AB0A2D4257D25B9220
:100B20002501AC071D46C72016AD068B4EC700AE8B
:100B30000F3E42CF90848A25522231191200AF060F
:100B40000D5EC720B009A4568F12498902B10C3D31
:100B50004257180D5298038300B208AB564F539278
:100B60000CB309AB568796640B00B4079B565752DB
:100B700002B50A3D3A47E634286208B6114542CF2D
:100B8000302443322489122551122501B706124F11
:100B9000C710B806933AD702B908AB564F2255068C
:100BA000BA07AB564FC701BB0B2D4247922559D20E
:100BB0001300BC0E55424F26B66452120D599800D0
:100BC000BD0C55424F26B66449981507BE0F5542D5
:100BD000879AA59192494934646102BF0A3D425700
:100BE0000E8559CB02C00D55424F9A234BA60D439B
:100BF000660BC10D55425F1D59326D18325B00C244
:100C00000E55425796E4C09269C390D902C30D5560
:100C1000428F3BB064DA3064B600C40D4D424F1DC4
:100C200058326D18325B00C50E5542579664D99202
:100C300069C390D902C60E3D42CFA044493424A5D1
:100C4000244A06C70C4D3ACF92896DC9184900C88D
:100C50000D55424F9A03C77048C27010C90D5542D6
:100C60005F1D38864312868300CA0E55425796C4CC
:100C7000C3180E49180E02CB0C4D424F7918C321F0
:100C800009C341CC0AD34247162E519701CD0AD34E
:100C90004257122E519701CE09D3424FDB127519DC
:100CA000CF0ACB4247922D519701D00D3D42CF54F0
:100CB0008986A49444C902D10D55428F73A64D4A2A
:100CC000226D5A00D20C55424F9A234BE62D590003
:100CD000D30B55425F1D59326FC902D40D5542578F
:100CE00096E4C092794B1600D50B55428F3BB06409
:100CF000DE9205D60B4D424F1D58326FC902D70AFE
:100D00002D464796D42AB500D80F4D3E67B2444BC6
:100D1000A2244A32254B08D90B55424F9A03996FAA
:100D2000C902DA0B55425F1DC87C4B1600DB0B5520
:100D3000425796C4996FC902DC0A4D424F39F32DD0
:100D40005900DD0C55425F1DC8B4A4163601DE0BF8
:100D5000BC4247B644A621C900DF0D3D42CF9249AF
:100D600049A992290A00E00C45424F9A236B326848
:100D7000C910E10C45425F1D5993414B8600E20DBD
:100D800045425796E4C09A0C5A3204E30C45428F10
:100D90003BB02683960C01E40C3D424F1D58934115
:100DA0004B8600E50D4542579664D99A0C5A320499
:100DB000E60A2D42CF96244B6D08E70C3D3ACF92C0
:100DC000895932461200E80C45424F9A234B362887
:100DD000E902E90C45425F1D59B241491700EA0D8D
:100DE00045425796E4C0920D4ABA00EB0C3D424F83
:100DF0001D58B241491700EC09C34247164A2D035A
:100E0000ED09C34257124A2D03EE08C3424F9BD44B
:100E100032EF09BB424792492D03F00D4D424FADD1
:100E2000922683664B1600F10A45428F7362D26C9C
:100E300001F20C45424F9A234B664B1600F30B45CB
:100E4000425F1D59325BB200F40C45425796E4C034
:100E500092D99205F50B45428F3BB064B66401F61A
:100E60000B3D424F1D58325BB200F70A2D46570E1C
:100E70000C3A1001F80B2D42CF202DC9342800F96F
:100E80000B45424F9A03995BB200FA0A45425F1D37
:100E9000C8DC9205FB0B45425796C4995BB200FC37
:100EA0000A3D424F39734B1600FD0B553A5F1DC882
:100EB0006C49AD11FE0D4D3A47180E49661B943032
:100EC00004FF0B4D3A4F39B325B546000000000032
:100ED000505011241FBECFEFD1E2DEBFCDBF00E0E6
:100EE0000CBF14E0A0E0B2E0E6EFF3EC00E00BBFD3
:100EF00002C007900D92A236B107D9F720E1A2E611
:100F0000B4E001C01D92AE3FB207E1F717E0C9E6B9
:100F1000D7E000E006C021970109802FFE010E9462
:100F2000DB5DC836D10780E00807A9F70E94E756C5
:100F30000C94F96165C8DC01ED91FD918081ED9122
:100F4000FD919081ED91FD916C9163708E2309F07C
:100F500064609F2309F06860E8EBF7E0E60FF11D9D
:100F6000659565956D936D917D918D919D91099498
:100F700023C01AC012C016C010C01EC009C014C0C1
:100F800013C006C019C009C00DC007C00DC014C0F1
:100F900062507040804090400BC061507040804073
:100FA000904006C06E5F01C06F5F7F4F8F4F9F4FB5
:100FB0009E938E937E936E93089580916705909192
:100FC0006805B9CF8091650590916605B4CF809191
:100FD000630590916405AFCF8091610590916205A2
:100FE000AACF80915F0590916005A5CF80915D05A6
:100FF00090915E05A0CF8091A0109091A110A0913A
:10100000A210B091A3100196A11DB11D8093A01054
:101010009093A110A093A210B093A3100895CF9223
:10102000DF92EF92FF920F931F93CF93DF936C01A8
:10103000EB017B01E40EF51E00E010E0CE15DF05AC
:1010400061F06991D601ED91FC910190F081E02D64
:10105000C6011995080F191FF1CFC801DF91CF9173
:101060001F910F91FF90EF90DF90CF90089508951A
:1010700080E090E00895CF92DF92EF92FF921F936D
:10108000CF93DF9380912E0984FD13C080618093FC
:101090002E0962E083E10E94F83362E082E10E945F
:1010A000F83362E081E10E94F83362E088E10E9457
:1010B000F83380918F05823028F4F89484E895E025
:1010C0003ADF01C0F894C0908B05D0908C05E09079
:1010D0008D05F0908E05789481E10E94A13311E096
:1010E000892B09F410E088E10E94A133EC012EEF76
:1010F000C2162FEFD206E206F206FCF480912D090B
:10110000111111C0826080932D09109210028FEF8F
:101110009FEFDC018093EE0D9093EF0DA093F00D07
:10112000B093F10D03C0846080932D09F89484E09E
:10113000C80ED11CE11CF11C24C023E0C216D1044E
:10114000E104F10444F180912D09111111C0816075
:1011500080932D09109210028FEF9FEFDC01809396
:10116000EE0D9093EF0DA093F00DB093F10D03C031
:10117000886080932D09F89484E0C81AD108E108AA
:10118000F108C0928B05D0928C05E0928D05F0920B
:101190008E05789447C080911002111106C08823F3
:1011A00009F440C0109210020FC081113BC081E0D1
:1011B00080931002C090EE0DD090EF0DE090F00DF6
:1011C000F090F10DF7FE0BC00E9459346093EE0DC4
:1011D0007093EF0D8093F00D9093F10D23C00E945A
:1011E0005934DC01CB018C199D09AE09BF0980324D
:1011F0009340A105B10520F080912D09806210C0B7
:101200000E945934DC01CB018C199D09AE09BF093C
:1012100088379105A105B10528F080912D098061DD
:1012200080932D09CD2B31F50E945934C090EE0DDD
:10123000D090EF0DE090F00DF090F10DDC01CB01BE
:101240008C199D09AE09BF09883C9105A105B1051E
:1012500088F00E9459346093EE0D7093EF0D8093E7
:10126000F00D9093F10D1092B11080912D098062D4
:1012700080932D09DF91CF911F91FF90EF90DF9028
:10128000CF9008958091AC10882331F01092AC106B
:101290008EE395E00C943B290895CF92DF92EF9274
:1012A000FF920F931F93CF93DF9300D000D0CDB761
:1012B000DEB77C018B016A01BA01C8010E94AE4F02
:1012C00064EC71E0C8010E94BC4FF701808181117C
:1012D00003C060EF71E002C066EF71E0CE010196DD
:1012E0000E943F4FBE016F5F7F4FC8010E94405078
:1012F000CE0101960E943A4FB601C8010E94AE4F3E
:101300006AEB71E0C8010E94BC4FF7018181811135
:1013100003C060EF71E002C066EF71E0CE0101969C
:101320000E943F4FBE016F5F7F4FC8010E94405037
:10133000CE0101960E943A4FB601C8010E94AE4FFD
:1013400063EB71E0C8010E94BC4FF701428150E09D
:1013500060E070E02AE0C8010E94F54FC8010E94D9
:101360003D5026960FB6F894DEBF0FBECDBFDF917D
:10137000CF911F910F91FF90EF90DF90CF90089544
:10138000EF92FF920F931F93CF93DF938C01EB01AA
:101390007A0183DFB701CE010E94AE4F60EE71E0AB
:1013A000CE010E94BC4FF8014381548160E070E09F
:1013B0002AE0CE010E94F54FCE010E943D50B701B8
:1013C000CE010E94AE4F6FEC71E0CE010E94BC4F87
:1013D000F8014581568160E070E02AE0CE010E946C
:1013E000F54FCE01DF91CF911F910F91FF90EF90BC
:1013F0000C943D500F931F93CF93DF93EC018C011E
:101400000C5F1F4FFC01E958FF4F0190F081E02D68
:10141000C80119958E3F2FEF920780F4FE01E65820
:10142000FF4FC758DF4F9C0140816881C8010E946F
:10143000463B288190E0820F911D888381E090E0F7
:10144000DF91CF911F910F910895FC0190818091C0
:10145000200998131CC080912D098823A9F019C078
:1014600080912F0983FD2CC04091FD085091FE080A
:10147000452B21F5886080932F0980912F09846086
:1014800080932F0920932D098091B110089580E059
:10149000089584FFF9CF9091B110FB01208192173C
:1014A00098F49F5F9093B110FB013081282F2F7E1D
:1014B0003111D6CF20932D0981E00895877FDBCFAE
:1014C0009111E0CF877FDCCF90E0ECCFAF92BF925D
:1014D000CF92DF92EF92FF920F931F93CF93DF9300
:1014E000CDB7DEB72F970FB6F894DEBF0FBECDBFD6
:1014F0008F87E091F50F21E3E29FF0011124EF586F
:10150000F84F61857285838594850E94D75B20E0C2
:1015100030E040E752E40E94285D0E94905D6B013C
:101520007C0181E08983CE0101965C01BC010E96AD
:101530008CDF882379F10E94B24B8823C1F097EEAB
:10154000C91693E0D906E104F10430F4EFEFCE1AA6
:10155000DE0AEE0AFE0A06C087EEC82E83E0D82E09
:10156000E12CF12C80912D09877F80932D090E9419
:10157000AC4B882379F0C114D104E104F10429F0C3
:10158000F1E0CF1AD108E108F10880912D098B7F95
:1015900080932D09FF92EF92DF92CF9286EE92E038
:1015A0009F938F93BF92AF920E94305F8F851CE014
:1015B000612F189F600D1124A50180E10E94F2495E
:1015C00081E08E87BE01625F7F4FCE010F963DDFC7
:1015D0000FB6F894DEBF0FBECDBF882351F08F85C4
:1015E000819F602D11246D5F2BE042E186E40E9413
:1015F0001F4A0091F50F31E3039F800111240F581A
:10160000184FC701B6010E94D75B20E030E040E7E9
:1016100052E40E94145C0E94905DF8016187728719
:10162000838794872F960FB6F894DEBF0FBECDBF89
:10163000DF91CF911F910F91FF90EF90DF90CF90AE
:10164000BF90AF900895CF92DF92EF92FF920F93E9
:101650001F93CF93DF93CDB7DEB76B970FB6F89498
:10166000DEBF0FBECDBF8B8FE091F50F21E3E29F70
:10167000F0011124EF58F84F6581768187819085BC
:10168000AE014D5E5F4F0E94773E23E0F22EF9825D
:101690008E010F5F1F4FB801CE014B96D6DE882317
:1016A00009F463C0F982B801CE014B96CEDE90E01A
:1016B0000197982F990F890F8093F20D0E94B24BDA
:1016C000882339F1F982B801CE014B96BEDE823013
:1016D00061F0833091F08130B9F48D89873110F455
:1016E0008F5F01C087518D8B0FC08C898B3310F4B5
:1016F0008F5F01C08B538C8B07C08B898B3310F4A9
:101700008F5F01C08B538B8B80912D09877F8093D6
:101710002D090E94AC4B882341F183E08983B801F5
:10172000CE014B9692DE823061F0833091F08130B1
:10173000B9F48D89882311F0815001C087E18D8B28
:101740000FC08C89882311F0815001C08BE38C8BF2
:1017500007C08B89882311F0815001C08BE38B8BEC
:1017600080912D098B7F80932D098B891F928F93F8
:101770008C891F928F938D891F928F9384EF92E0B3
:101780009F938F931F930F930E94305F8B8D9CE0EC
:10179000F92E6F2DF89E600D1124A80180E10E94A2
:1017A000F24983E08A8FBE01665E7F4FCE014B9681
:1017B0004CDE0FB6F894DEBF0FBECDBF882391F08C
:1017C0008B8D8F9D602D11246D5F8091F20D90E0C7
:1017D0000A96982F990F890F880F2BE04CE0865FAF
:1017E0000E941F4A4C89E091F50F31E3E39FF0011D
:1017F0001124EA58F84F2D8930E0A0E1BEE00E94A4
:10180000195D6B017C01242F30E0ACE3B0E00E9455
:10181000195DDC01CB018C0D9D1DAE1DBF1D2B89FB
:10182000820F911DA11DB11D80839183A283B3837B
:101830006B960FB6F894DEBF0FBECDBFDF91CF9190
:101840001F910F91FF90EF90DF90CF900895EF924E
:10185000FF920F931F93CF93DF93CDB7DEB76397BC
:101860000FB6F894DEBF0FBECDBF8B8B60E674E081
:10187000CE0107960E944F4F84E7E82E87E0F82EAE
:1018800000E010E0F7018081882359F01F5F602F8E
:10189000CE0107960E94434E60E2CE0107960E9459
:1018A0006D4E0F5FF1E3EF0EF11C083059F719820E
:1018B000BE016F5F7F4FCE014396C7DD8823E1F005
:1018C00080E090E0143059F4FC01EF58F84F138297
:1018D000C196883821E09207B9F710E00BC021E0EB
:1018E000FC01EF58F84F2383C196883831E0930705
:1018F000B9F714E010922D0960E674E0CE0101966C
:101900000E944F4F111103C06CE073E004C0183007
:1019100039F466E173E0CE0101960E94104F29C0B0
:101920006FE173E0CE010D960E944F4F4B855C85B1
:101930006F817885CE010D960E94E74D811104C01C
:10194000CE010D960E94B94E41E050E067E273E08F
:10195000CE010D960E94E74D882351F1BE01635FD1
:101960007F4FCE0101960E94254FCE010D960E9419
:101970003A4F49815A818B896CE0689F600D112430
:101980008AE00E94F249CE0101960E943A4FCE01B0
:1019900007960E943A4F63960FB6F894DEBF0FBECB
:1019A000CDBFDF91CF911F910F91FF90EF900895E0
:1019B000CE010D960E94B94ED1CF1F93CF93DF93E6
:1019C000CDB7DEB728970FB6F894DEBF0FBECDBFF8
:1019D000888711E01983BE016F5F7F4FCE010896A3
:1019E00034DD882321F180912D09882301F1E091D4
:1019F000F50F2E2F30E081E3E89FF0011124EF581E
:101A0000F84F9081992329F08381811102C01383BB
:101A10000CC081E3829FF001839FF00D1124EF58E9
:101A2000F84F81E089278083138210922D096AE4A0
:101A300072E0CE0101960E943F4FE091F50F81E3E5
:101A4000E89FF0011124EF58F84F8381882319F0A3
:101A500065E472E008C08081811103C06AE372E02E
:101A600002C060E472E0CE0101960E94B84D498147
:101A70005A8188851CE0612F189F600D112480E138
:101A80000E94F24981E08F83BE01695F7F4FCE01E2
:101A90000896DBDC882351F08885819F602D112416
:101AA0006D5F2BE04EE186E40E941F4ACE01019655
:101AB0000E943A4F28960FB6F894DEBF0FBECDBFF6
:101AC000DF91CF911F9108951F93CF93DF93CDB7EF
:101AD000DEB728970FB6F894DEBF0FBECDBF88875C
:101AE00081E08983BE016F5F7F4FCE010896ADDC38
:101AF000882321F10E94B24B882371F08091F50F69
:101B0000873010F48F5F01C080E08093F50F8091E3
:101B10002D09877F80932D090E94AC4B882371F09B
:101B20008091F50F882311F0815001C087E08093E8
:101B3000F50F80912D098B7F80932D0961E372E071
:101B4000CE0101960E943F4F6091F50FCE010196A4
:101B50000E94434E49815A8188851CE0612F189F5D
:101B6000600D11248AE00E94F24981E08F83BE015A
:101B7000695F7F4FCE01089668DC882351F0888525
:101B8000819F602D11246D5F2BE046E08AE30E9467
:101B90001F4ACE0101960E943A4F28960FB6F8943C
:101BA000DEBF0FBECDBFDF91CF911F910895FC0125
:101BB0009281963308F0965320917B00892F88708C
:101BC000277F282B20937B009770906490937C0054
:101BD00080917A00806480937A0080917A0086FDFB
:101BE000FCCF209178008091790030E0382B438140
:101BF000548191814217530740F44581568124173F
:101C0000350718F481E089270895892F08950F93E7
:101C10001F93CF93DF93EC018B0160E674E00E9489
:101C20004F4FF80160817181828193810E94921DE2
:101C30008091071090E00A9724F460E3CE010E949F
:101C40006D4EF80160817181828193810E94921DA5
:101C50006091071070E0CE010E94144E6AE3CE013D
:101C60000E946D4EF80160817181828193810E9492
:101C7000921D8091061090E00A9724F460E3CE0153
:101C80000E946D4EF80160817181828193810E9472
:101C9000921D6091061070E0CE010E94144E6AE31E
:101CA000CE010E946D4EF801608171818281938125
:101CB0000E94921D8091051090E00A9724F460E341
:101CC000CE010E946D4EF801608171818281938105
:101CD0000E94921D6091051070E0CE010E94144E8A
:101CE000CE01DF91CF911F910F910895CF92DF9296
:101CF000EF92FF920F931F93CF93DF93CDB7DEB791
:101D00002C970FB6F894DEBF0FBECDBF7C018B01C0
:101D10006A0169E273E0C8010E94E04FC8010E94B5
:101D20003D50C8010E943D506BE5C8010E94A74F7D
:101D3000B601C8010E94AE4F6DE5C8010E94A74FD1
:101D4000C8010E943D5066E272E0C8010E94BC4F8B
:101D5000F7018081811103C060EF71E002C066EF7E
:101D600071E0CE0101960E943F4FBE016F5F7F4F31
:101D7000C8010E944050CE0101960E943A4F69E18D
:101D800072E0C8010E94BC4FF701448150E060E05E
:101D900070E02AE0C8010E94F54FC8010E943D5042
:101DA000C8010E943D506AE773E0CE0107960E9489
:101DB0004F4FBE01695F7F4FC8010E94AE4F67E081
:101DC00072E0C8010E94BC4FB7016B5F7F4FCE012C
:101DD00001961DDFBE016F5F7F4FC8010E9440501A
:101DE000CE0101960E943A4FBE01695F7F4FC80144
:101DF0000E94AE4F6BEF71E0C8010E94BC4FB7016B
:101E0000675F7F4FCE01019602DFBE016F5F7F4F9C
:101E1000C8010E944050CE0101960E943A4FCE0167
:101E200007960E943A4FC8010E943D506FE773E049
:101E3000CE0101960E944F4FBE016F5F7F4FC801D8
:101E40000E94AE4F60E172E0C8010E94BC4FF701F2
:101E500041895289638974892AE0C8010E94F54F3B
:101E6000C8010E943D50CE0101960E943A4FC80120
:101E70000E943D5064E873E0CE0101960E944F4FEE
:101E8000AE014F5F5F4FB801C701459606DACE013C
:101E900001960E943A4FC8010E943D506DE873E0E0
:101EA000CE0101960E944F4FAE014F5F5F4FB801C8
:101EB000C7014C9665DACE0101960E943A4FC801DF
:101EC0000E943D5066E973E0CE0101960E944F4F9B
:101ED000AE014F5F5F4FB801C701839651DACE0163
:101EE00001960E943A4FC8010E943D506BE973E091
:101EF000CE0101960E944F4FAE014F5F5F4FB80178
:101F0000C7018A963DDACE0101960E943A4FC80178
:101F10000E943D502C960FB6F894DEBF0FBECDBF89
:101F2000DF91CF911F910F91FF90EF90DF90CF90B5
:101F30000895AF92BF92CF92DF92EF92FF920F93EC
:101F40001F93CF93DF9300D000D0CDB7DEB78C01C5
:101F500040E050E06AE30E94644D5C01019609F4A0
:101F600056C0F8012481358140E050E0B801CE012F
:101F700001960E94634FCE010196DDD59B01AC0115
:101F8000A0E1BEE00E94E75C6B017C01CE010196FE
:101F90000E943A4FFFEFAF1ABF0AF8012481358142
:101FA000A501B801CE0101960E94634FCE010196B2
:101FB000C2D59B01AC01ACE3B0E00E94E75CC60E69
:101FC000D71EE81EF91ECE0101960E943A4FA501C8
:101FD0006AE3C8010E94644D8F3FFFEF9F07D1F075
:101FE000F80124813581AC014F5F5F4FB801CE010C
:101FF00001960E94634FCE0101969DD5C60ED71E55
:10200000E81EF91ECE0101960E943A4F03C0C80196
:1020100092D502C0B601C70126960FB6F894DEBF6E
:102020000FBECDBFDF91CF911F910F91FF90EF9029
:10203000DF90CF90BF90AF9008958F929F92AF9214
:10204000BF92CF92DF92EF92FF920F931F93CF93A5
:10205000DF9300D000D0CDB7DEB77C01DC01CD909E
:10206000DC901197C114D10409F443C014960D916A
:102070001C91159701151105E1F146015401BFEFBF
:102080008B1A9B0AF5018081082E000C990B0E9487
:10209000BF5B892B99F7015011090C0D1D1DD8014B
:1020A0008C91082E000C990B0E94BF5B892B81F448
:1020B000A8014F5F5F4F4A195B09F70155834483BD
:1020C000CA14DB0458F4B501C6010E94F45E06C0D0
:1020D0000A151B0568F301501109E1CFD701ED91F5
:1020E000FC91119714968D919C911597E80FF91F0B
:1020F00010826EEA71E0CE0101960E943F4FBE0150
:102100006F5F7F4FC7010E94804D182FCE0101964F
:102110000E943A4F81E0111101C080E026960FB66F
:10212000F894DEBF0FBECDBFDF91CF911F910F910D
:10213000FF90EF90DF90CF90BF90AF909F908F90E7
:102140000895CF93DF938091FD089091FE08892B2D
:1021500009F07DC0C09114090E94614A682F6C0F7C
:102160008091FB089091FC080E942536EC012E819D
:102170003F818C85232B11F080FD1FC081FF04C09F
:1021800080912E0982FF5DC060E0CE010E9425365D
:10219000892B09F45CC060E0CE010E941B36EC0183
:1021A000892B09F454C0CE010E94113681110EC052
:1021B00080912E0980FFEFCF09C090912E0992FDEA
:1021C000DDCFD093FE08C093FD0841C0C091140933
:1021D0000E94614A682F6C0F8091FB089091FC0867
:1021E0000E9425369093FC088093FB08E091220919
:1021F000EA30E8F4AE2FB0E0A750B74F20911409B1
:1022000051962C935197209115095D962C9310921D
:102210001509EF5FE0932209EA3039F0DC011A96E4
:102220008C91F0E0E750F74F82A71092140980914B
:102230002E0982FD0CC010922D090E94F64B80934E
:1022400021090E94364CDF91CF910C943E31DF91F1
:10225000CF9108950F931F93CF93DF93E091FB08E5
:10226000F091FC0880819181009719F4309731F149
:10227000CF019093FC088093FB08E0912209E15084
:10228000E930E0F4E0932209F0E0E750F74F858D64
:1022900080931509C189C093140980910909C81751
:1022A00068F0D0E0C81BD10900E010E0C017D107EA
:1022B0002CF00E946C310F5F1F4FF8CFDF91CF9150
:1022C0001F910F910895EF92FF920F931F93CF9359
:1022D000DF93062F7A01EC018E819F818E159F0579
:1022E00021F4011102C011E025C08A85811102C0CC
:1022F0000130C9F360E0CE010E942536892B51F1EF
:1023000020DF60E0CE010E9425362091FD0830914B
:10231000FE08232BC9F09EDF0E94F64B8093210913
:1023200090911409981728F49F5F909314090E94C4
:102330006C3110E061E0CE010E941B36EC01892B6C
:1023400099F0111111C0C8CFA701602FBCDF811116
:10235000CACFE1CF8091140990912109891748F7DC
:102360008F5F80931409E3CF812FDF91CF911F916D
:102370000F91FF90EF9008958091FD089091FE08D5
:10238000009759F020912F0927FF03C06091300971
:1023900002C0FC0163850C94073608958F929F92CA
:1023A000AF92BF92CF92DF92EF92FF92CF93DF93E3
:1023B000C82F84E195E09093F40F8093F30FCC2322
:1023C00069F1C53010F080E00DC140E060E070E0E0
:1023D000CB010E9484238823B1F320E1C29FC00176
:1023E00011248D51924FFC01E254FE4F20812F7732
:1023F00051F73C9640815181628173814436510589
:102400006105710500F33497C080D180E280F380CC
:10241000C114D104E104F10421F4D5CFC12CD12C95
:10242000760140E0C701B6010E948423882359F257
:102430008091FE0D9091FF0D8115924021F6A091A3
:10244000030EAA2309F4BFCF6091010E7091020E12
:102450006115710509F4B7CF2091000E222309F40C
:10246000B2CFA09332052093240580E030E0E1E074
:10247000F0E0C82FAF01082E02C0440F551F0A9488
:10248000E2F72417350741F0982F8F5F983089F7CE
:1024900089E080932D0597CF80932D052091090E1B
:1024A00030910A0E2115310519F040E050E008C0C6
:1024B0002091170E3091180E4091190E50911A0E5E
:1024C0002093250530932605409327055093280532
:1024D00046015701860E971EA11CB11C8092330540
:1024E00090923405A0923505B0923605E091040E25
:1024F000F091050EF0933905E0933805B0E00E94A5
:10250000E75C860E971EA81EB91E80923A0590922F
:102510003B05A0923C05B0923D0585E0EE0FFF1F04
:102520008A95E1F7E150FE4FEF2FFF27E6958E0EDB
:102530009F1EA11CB11C80922E0590922F05A09287
:102540003005B09231052091060E3091070E21150D
:10255000310521F0A90160E070E008C04091130E40
:102560005091140E6091150E7091160ED701C60190
:1025700088199909AA09BB09840F951FA61FB71FBF
:1025800004C0B695A79597958795CA95D2F780937D
:10259000290590932A05A0932B05B0932C05853F20
:1025A0002FE09207A105B10510F48CE018C0853F1B
:1025B0009F4FA105B10510F480E111C080911F0E5D
:1025C0009091200EA091210EB091220E80933A0599
:1025D00090933B05A0933C05B0933D0580E280932A
:1025E000370581E0DF91CF91FF90EF90DF90CF90A2
:1025F000BF90AF909F908F900895CF9380912D09B9
:10260000882359F10E94593460933A0970933B0929
:1026100080933C0990933D092091FD083091FE087C
:1026200080912D09232B09F0D5C084FDE1C00E94C3
:10263000B24B81117BC00E94AC4B8111A7C080912D
:102640002D09837021F00E94364C0E943E3180910A
:102650002D0985FDD4C010922D098091FD0890911F
:10266000FE08892B09F455C080912F09982F917489
:10267000B9F4409136095091370960913809709149
:10268000390982E399E00E94B84B8111C8C080915A
:102690002F0981FFC4C080912D098111C0C0C2C023
:1026A000816080932F0968DE10922D091092FE0838
:1026B0001092FD0880912F09887780932F09C0E040
:1026C00080913109C81718F4C5DDCF5FF9CF10929A
:1026D000310980912F0986FF13C08F7B80932F09CA
:1026E0008091F9089091FA089093FC088093FB0878
:1026F00010922209109220091092140910921509C3
:1027000080912E0982FD8EC00E94364CCF910C9490
:102710003E3180E091EEA5EFB5E0809336099093CD
:102720003709A0933809B09339097CC080912F09EB
:1027300083FD27C080911409882331F08150809354
:1027400014090E946C311AC080912E0981FF16C0B5
:10275000809121098093140990910909282F30E074
:10276000291B310937FF03C01092150903C0891BCB
:10277000809315090E946C310E94364C0E94214CB6
:1027800002C00E94364C0E943E3155CF80912F09E5
:1027900083FD1BC08091140990912109891730F4A1
:1027A0008F5F809314090E946C310CC080912E09B8
:1027B00081FF08C010921409109215090E946C3113
:1027C0000E94364C0E94214C02C00E94364C0E944E
:1027D0003E3135CF85FF41CF90912F09977F1092E1
:1027E0003109916090932F098F7D80932D0935CF0A
:1027F000A8DC80912E09886080932E0918CF8091E3
:102800002F09877F80932F0980912209882309F45B
:1028100022CF20DD0E94364C0E943E311CCFACDD21
:1028200010922D09CF910895CF93DF93EC019091F1
:102830002F09977F90932F0990912E09956090937F
:102840002E090E94464C8091FD089091FE08892B2C
:1028500009F0D3DE8091F9089091FA082091FD08E3
:102860003091FE08232B21F4AE0160E02CDD01C085
:1028700080E020912F092F7720932F0990912E0926
:10288000882381F09B7F90932E09206820932F0945
:102890001092300956DC80912E098E7F80932E098C
:1028A00081E004C09A7F90932E0980E0DF91CF9160
:1028B0000895CF92DF92FF920F931F93CF93DF93F0
:1028C000CDB7DEB764970FB6F894DEBF0FBECDBFAD
:1028D0006B01FC011081212F153608F024E630E051
:1028E000ADE0B0E00E94195D24E630E040E050E049
:1028F0000E94CB5CFF24F394F20E1F921F9386EA92
:1029000093E09F938F938E010F5F1F4F1F930F9341
:102910000E94305F0F900F900F900F900F900F90CC
:10292000F8019DE331968E2F801B8F1510F4908354
:10293000F9CFF60180816CE0869F602D1124A801FB
:102940008AE00E94F24920E440E860E080E00E94D2
:102950001F4A64960FB6F894DEBF0FBECDBFDF915D
:10296000CF911F910F91FF90DF90CF900895CF925C
:10297000DF92EF92FF921F93CF93DF9380914305F5
:10298000882321F08EE395E00E943B2910921F05D9
:1029900010921D0510921A051092190585E3809377
:1029A00018050E9459346B017C0161E08091180583
:1029B0000E94F83361E0809118050E94C9330E949B
:1029C0002B4982E580931205109213058091120520
:1029D000909113050E94B647DAE08FEF0E94C9215B
:1029E000D150D9F7E6010E94BD2184E195E00E9413
:1029F000A72120E030E0A90160E084E195E00E9499
:102A00000422182F80931E05813049F00E9459340A
:102A10006C1B7D0B613D774060F381E054C02AEA76
:102A200031E040E050E068E084E195E00E9404225B
:102A300082FF03C010931F050EC014E00E94D02136
:102A400080931E051150D1F78A3A11F082E03BC005
:102A500082E080931F0580911F05823021F0C12CF8
:102A6000D12C760105C0C12CD12CE12C80E4F82EAC
:102A700020E030E0A90167E384E195E00E940422B0
:102A8000A701960169E284E195E00E940422809307
:102A90001E05882349F00E9459346C1B7D0B613D53
:102AA000774030F388E00FC080911F05823001F538
:102AB00020E030E0A9016AE384E195E00E9404226D
:102AC000882341F086E08093190584E195E00E9417
:102AD000BE2127C00E94D021807C803C19F483E075
:102AE00080931F050E94D0210E94D0210E94D021F6
:102AF00084E195E00E94BE2180E58093120510924A
:102B0000130581E04BDC882341F08EE395E00E94C1
:102B1000BD4C91E0811106C004C080E03FDC811112
:102B2000F4CF90E0892FDF91CF911F91FF90EF902C
:102B3000DF90CF900895FC0180819181009711F082
:102B40000C94515B60E070E0CB01089508950F9301
:102B50001F93CF93DF93CDB7DEB728970FB6F894C6
:102B6000DEBF0FBECDBF0E94D3498823C9F060EC01
:102B700073E082E694E00E94BC4F80912F0984604C
:102B800080932F0984E690E0A0E0B0E080933609BE
:102B900090933709A0933809B093390910927A10AD
:102BA0000E94E64B882309F460C062EB73E0CE011B
:102BB00001960E943F4F8091AC10811106C0D7DE74
:102BC0008093AC1063EA73E01BC080917A10883068
:102BD000E0F40E94CB2B882389F06EE282E694E039
:102BE0000E94A74F63E973E0CE0101960E94CB4E8D
:102BF00080917A108F5F80937A100DC061E873E046
:102C0000CE0101960E94CB4E06C08CE793E00E9455
:102C10005B310E94464C0E94924A83E599E00E94F3
:102C2000F73C12E049815A816CE08AE00E94F24947
:102C3000188780917A1024E6829FC001112423E036
:102C4000959587952A95E1F78F83BE01685F7F4F41
:102C5000CE0107962EDE83E599E00E94C13C8111EA
:102C6000E1CFCE0101960E943A4F0E949D4B8823EE
:102C700051F16CE673E082E694E00E94BC4F00E004
:102C800010E06EE282E694E00E94A74FF801EF5850
:102C9000F84F61E084810E94F8330F5C1F4F0838C1
:102CA00081E0180771F78BEF97E090930102809312
:102CB000000280916A00836080936A00EC9A87E644
:102CC00093E00E945B3128960FB6F894DEBF0FBEEA
:102CD000CDBFDF91CF911F910F910895EF92FF9299
:102CE0000F931F93CF93DF93CDB7DEB7A0970FB6A7
:102CF000F894DEBF0FBECDBF0E94D349882309F1EF
:102D000080912F09846080932F090E945934609329
:102D1000AD107093AE108093AF109093B01084E616
:102D200090E0A0E0B0E08093360990933709A0933B
:102D30003809B09339090E942E3D49EF5FE00E94A7
:102D4000773E0E94E64B882309F4A7C044EF51E088
:102D500060E070E08DEA90E10E94B84B882381F03A
:102D60009091110281E08927809311020E945934C9
:102D70006093AD107093AE108093AF109093B0102D
:102D800080912D09882391F084FD77C10E94B24B78
:102D90008111A4C00E94AC4B811107C180912D0903
:102DA00081FD75C180912D0980FD87C18091FF0F44
:102DB00090E08E54984F9F938F938091FE0F1F92B7
:102DC0008F938091FD0F1F928F938BEB93E09F93D6
:102DD0008F93CE0101967C019F938F930E94305F69
:102DE0008091F90F1F928F938091FA0F1F928F930A
:102DF0008091FB0F1F928F9380ED93E09F938F93B1
:102E00008E010E5E1F4F1F930F930E94305F0E9432
:102E1000924A83E599E00E94F73C0FB6F894DEBF32
:102E20000FBECDBFA7016CE08AE00E94F249A80165
:102E300068E18AE00E94F2498091F80F882321F02E
:102E4000809111028823E9F09091F60F8091F70F9D
:102E5000911107C0863029F42BE048E163E082E558
:102E60000EC06CE0969F602D11246D5F90E0069679
:102E7000982F990F890F880F2BE04CE0865F0E94F6
:102E80001F4A20E440E860E080E00E941F4A83E59A
:102E900099E00E94C13C8111C5CF0E949D4B8823BF
:102EA00009F420C189EF9FE00E94B73DAE014F5F5A
:102EB0005F4F0E94773E898180688983CE010196A9
:102EC000F5D789818F778983CE010196EFD789EF76
:102ED0009FE00E94B73D0E94073D04C19091F80F0A
:102EE0008091F70F911110C0843020F48D5F809392
:102EF000F70F55C01092F70F81E09091F60F9111E6
:102F000080E08093F60F4BC09091F60F911124C092
:102F1000833071F08630B1F0811141C08091FD0F96
:102F20008F3110F48F5F01C08F518093FD0F37C038
:102F30008091FE0F8C3010F48F5F01C08C50809315
:102F4000FE0F2DC08091FF0F833610F48F5F01C0FC
:102F500083568093FF0F23C0833071F08630B1F029
:102F600081111DC08091FB0F873110F48F5F01C06C
:102F700087518093FB0F13C08091FA0F8B3310F4AD
:102F80008F5F01C08B538093FA0F09C08091F90FB6
:102F90008B3310F48F5F01C08B538093F90F8091B6
:102FA0002D09877F80932D09F5CE9091F80F8091A0
:102FB000F70F911111C0833020F083508093F70FE9
:102FC00056C086E08093F70F81E09091F60F911143
:102FD00080E08093F60F4BC09091F60F911124C0C2
:102FE000833071F08630B1F0811141C08091FD0FC6
:102FF000882311F0815001C08FE18093FD0F37C00D
:103000008091FE0F882311F0815001C08CE08093E5
:10301000FE0F2DC08091FF0F882311F0815001C059
:1030200083E68093FF0F23C0833071F08630B1F0C8
:1030300081111DC08091FB0F882311F0815001C0C8
:1030400087E18093FB0F13C08091FA0F882311F062
:10305000815001C08BE38093FA0F09C08091F90F72
:10306000882311F0815001C08BE38093F90F809188
:103070002D098B7F80932D0991CE2091F80F91E03F
:1030800092279093F80F8F7E80932D097FCE909199
:10309000F70F933020F093509093F70F0AC096E00B
:1030A0009093F70F91E02091F60F211190E090930B
:1030B000F60F8D7F80932D0975CE9091F70F943088
:1030C00020F49D5F9093F70F09C01092F70F91E0E5
:1030D0002091F60F211190E09093F60F8E7F809350
:1030E0002D0964CEA0960FB6F894DEBF0FBECDBFFB
:1030F000DF91CF911F910F91FF90EF9008952F9244
:103100003F924F925F926F927F928F929F92AF9277
:10311000BF92CF92DF92EF92FF920F931F93CF93C4
:10312000DF93CDB7DEB765970FB6F894DEBF0FBE5D
:10313000CDBF0E94924A809115098C5F8D8BF090D3
:103140002109F39483E08F1518F434E0232E01C095
:103150002F2CE09014090E94614AE80E83E599E063
:103160000E94F73C9CE0392ECF2CC218D12CA4E051
:10317000CA0ED11C20E4822E912C6E2C712CAF2C07
:10318000B12CB1E0AB1AB10840901509642D8091C3
:10319000FB089091FC080E9425368C01892BA9F42C
:1031A00080912009632D389E600D112445EE53E077
:1031B00082E00E94F24920E440E860E080E00E9462
:1031C0001F4A2F1408F04CC030C0512CC8010E9477
:1031D00011368823F1F0F801848580FF60C0E28514
:1031E000EF3F59F0F0E0EE0FFF1FE35EFC4F6591FB
:1031F0007491CE0101960E94775BAE014F5F5F4FE5
:10320000632D359C600D11248AE00E94F24943949D
:10321000539461E0C8010E941B368C01892B09F48C
:10322000BFCFFD894F1690F2BBCF20E446E060E0AF
:103230008AE70E941F4AC401B6010E94C85D962F0A
:10324000E11002C081E00AC06A147B0419F480E432
:10325000891B04C0E69E802D11248F5F0E94F949CE
:1032600083E599E00E94C13C81118ECF65960FB62F
:10327000F894DEBF0FBECDBFDF91CF911F910F91AC
:10328000FF90EF90DF90CF90BF90AF909F908F9086
:103290007F906F905F904F903F902F90089581FFA7
:1032A000B6CF652DC8010E940736B1CFAF92BF924D
:1032B000CF92DF92EF92FF921F93CF93DF93CDB720
:1032C000DEB72F970FB6F894DEBF0FBECDBF8F8746
:1032D000E091F50F21E3E29FF0011124EF58F84F40
:1032E000C08CD18CE28CF38C81E08983CE01019675
:1032F0005C01BC010E960E94250A882379F10E9488
:10330000B24B8823C1F097EEC91693E0D906E104C9
:10331000F10430F42FEFC21AD20AE20AF20A06C010
:1033200087EEC82E83E0D82EE12CF12C80912D0958
:10333000877F80932D090E94AC4B882379F0C114BC
:10334000D104E104F10429F031E0C31AD108E10805
:10335000F10880912D098B7F80932D09FF92EF92C8
:10336000DF92CF9287EE93E09F938F93BF92AF92BD
:103370000E94305F8F851CE0612F189F600D112423
:10338000A5018AE00E94F24981E08E87BE01625F5A
:103390007F4FCE010F960E94250A0FB6F894DEBF2C
:1033A0000FBECDBF882351F08F85819F602D1124E2
:1033B0006D5F2BE048E180E40E941F4AE091F50F29
:1033C00031E3E39FF0011124EF58F84FC08ED18E06
:1033D000E28EF38E2F960FB6F894DEBF0FBECDBFF0
:1033E000DF91CF911F91FF90EF90DF90CF90BF9032
:1033F000AF900895CF92DF92FF920F931F93CF93D8
:10340000DF93CDB7DEB72F970FB6F894DEBF0FBEB0
:10341000CDBF8F87E091F50F81E3E89FF001112484
:10342000EF58F84F07A510A981E08983CE010196D6
:103430006C01BC010E960E94250A882301F10E94AE
:10344000B24B882371F0011594E0190718F40F5F4F
:103450001F4F02C000E014E080912D09877F809308
:103460002D090E94AC4B882351F00115110511F074
:103470000150110980912D098B7F80932D091F9395
:103480000F9385EF93E09F938F93DF92CF920E94EB
:10349000305F8F859CE0F92E6F2DF89E600D112412
:1034A000A6018AE00E94F24981E08E87BE01625F38
:1034B0007F4FCE010F960E94250A0F900F900F901C
:1034C0000F900F900F90882351F08F858F9D602D66
:1034D00011246D5F2BE048E180E40E941F4AE091D7
:1034E000F50F81E3E89FF0011124EF58F84F10AB7E
:1034F00007A72F960FB6F894DEBF0FBECDBFDF91A2
:10350000CF911F910F91FF90DF90CF900895CF92B0
:10351000DF92FF920F931F93CF93DF93CDB7DEB768
:103520002F970FB6F894DEBF0FBECDBF8F87E09107
:10353000F50F81E3E89FF0011124EF58F84F05A53E
:1035400016A581E08983CE0101966C01BC010E961F
:103550000E94250A882301F10E94B24B882371F052
:10356000011594E0190718F40F5F1F4F02C000E027
:1035700014E080912D09877F80932D090E94AC4B28
:10358000882351F00115110511F0015011098091A6
:103590002D098B7F80932D091F930F9383E094E077
:1035A0009F938F93DF92CF920E94305F8F859CE034
:1035B000F92E6F2DF89E600D1124A6018AE00E945D
:1035C000F24981E08E87BE01625F7F4FCE010F9688
:1035D0000E94250A0F900F900F900F900F900F9060
:1035E000882351F08F858F9D602D11246D5F2BE016
:1035F00048E180E40E941F4AE091F50F81E3E89FD3
:10360000F0011124EF58F84F16A705A72F960FB613
:10361000F894DEBF0FBECDBFDF91CF911F910F9108
:10362000FF90DF90CF9008951F93CF93DF93CDB796
:10363000DEB728970FB6F894DEBF0FBECDBF8887E0
:1036400011E01983BE016F5F7F4FCE0108960E9483
:10365000250A882389F080912D09882369F0E0915B
:10366000F50F81E3E89FF0011124EF58F84F8689A8
:103670001827168B10922D0963E173E0CE01019695
:103680000E943F4FE091F50F81E3E89FF001112484
:10369000EF58F84F8689811103C068E073E002C0DB
:1036A0006EE073E0CE0101960E94B84D49815A81C7
:1036B00088851CE0612F189F600D11248AE00E940C
:1036C000F24981E08F83BE01695F7F4FCE0108968A
:1036D0000E94250A882351F08885819F602D11243E
:1036E0006D5F2BE04EE180E40E941F4ACE010196FF
:1036F0000E943A4F28960FB6F894DEBF0FBECDBF9A
:10370000DF91CF911F9108951F93CF93DF93CDB792
:10371000DEB728970FB6F894DEBF0FBECDBF8887FF
:1037200011E01983BE016F5F7F4FCE0108960E94A2
:10373000250A882389F080912D09882369F0E0917A
:10374000F50F81E3E89FF0011124EF58F84F8589C8
:103750001827158B10922D096EEF72E0CE0101969D
:103760000E943F4FE091F50F81E3E89FF0011124A3
:10377000EF58F84F8589811103C063EF72E002C0F2
:1037800069EF72E0CE0101960E94B84D49815A81DD
:1037900088851CE0612F189F600D11248AE00E942B
:1037A000F24981E08F83BE01695F7F4FCE010896A9
:1037B0000E94250A882351F08885819F602D11245D
:1037C0006D5F2BE04EE180E40E941F4ACE0101961E
:1037D0000E943A4F28960FB6F894DEBF0FBECDBFB9
:1037E000DF91CF911F9108958091040590E0209181
:1037F0000505821B9109089585ED8093BC00809199
:10380000BC0084FDFCCF10920105089540912E105C
:10381000262F30E0240F311D21323105DCF42091B8
:1038200001052430C9F4FC0180E090E0861758F4CB
:1038300030912E102191DC01A45FBF4EA30FB11D6A
:103840002C930196F3CF80912E10680F60932E1069
:1038500080E0089581E0089582E008950895E09160
:10386000050580910405E81730F4F0E0ED5AFF4EAD
:10387000808190E008958FEF9FEF08959091050566
:1038800080910405981750F4E92FF0E0ED5AFF4EAF
:10389000208130E09F5F9093050502C02FEF3FEF3E
:1038A000C9010895CF92DF92EF92FF920F931F9379
:1038B000CF93DF937C01262F972F8A018091D81018
:1038C000882391F0C62FD72F6E01C40ED51ECC15BC
:1038D000DD0569F06991D701ED91FC910190F081CE
:1038E000E02DC7011995F3CF642F822F8FDFC80118
:1038F000DF91CF911F910F91FF90EF90DF90CF90CC
:103900000895CF93DF931F92CDB7DEB769832091DF
:10391000D8102223D1F020910205203240F021E07E
:1039200030E0FC013383228380E090E014C080917A
:103930000305E82FF0E0E752FF4E998190838F5FF7
:10394000809303058093020504C061E0CE010196D7
:103950005DDF81E090E00F90DF91CF9108951F939C
:10396000CF93DF93CDB7DEB727970FB6F894DEBFBE
:103970000FBECDBF11E01093D81088E68093F910E8
:10398000109203051092020560E086E095E0B9DF31
:1039900081E00E94404B882319F010927310B5C04B
:1039A00010937310809101058111FCCF81E0809309
:1039B0000105809300059FEF9093D7101092D610C9
:1039C00096E09093D5108093B4108091B410806DE0
:1039D0008093B4108091FF04813061F41092FF0451
:1039E0008091B4108093BB008091BC0083FDF8CF20
:1039F00085EC01C085EE8093BC008091010581308B
:103A0000E1F38091D610873018F48091D61001C070
:103A100087E0A5EBB0E123E530E1F9019E2F921B91
:103A2000981718F49D919193F9CF10920505809302
:103A30000405873008F469C086E095E01FDF182F81
:103A40008695869586958E70982F990F990F890F78
:103A5000912F9F70890F898386E095E00FDF282FD3
:103A600022952F70982F9F708AE0289F900D112427
:103A70009A8386E095E002DF982F282F26952695D9
:103A800026952670822F880F880F280F9F70920F1F
:103A90009B8386E095E0F2DE282F22952F70982FE9
:103AA0009F708AE0289F900D11249C8386E095E00A
:103AB000E5DE282F22952F70982F9F708AE0289F8F
:103AC000900D11249D8386E095E0D8DE282F229565
:103AD0002F70982F9F708AE0289F900D11249E834D
:103AE00086E095E0CBDE982F9F70925E282F22957E
:103AF0002F708AE0289F900D11249F8317FD05C029
:103B0000CE0101960E94B73D03C060E070E0CB019A
:103B100027960FB6F894DEBF0FBECDBFDF91CF91D1
:103B20001F910895CF92DF92EF92FF92C090741090
:103B3000D0907510E0907610F09077106C157D05A0
:103B40008E059F0571F06B017C0145E050E10E94FC
:103B5000773EC0927410D0927510E0927610F09279
:103B60007710FF90EF90DF90CF9008954F925F9283
:103B70006F927F928F929F92AF92BF92CF92DF927D
:103B8000EF92FF920F931F93CF93DF93CDB7DEB7E2
:103B900068970FB6F894DEBF0FBECDBF7C018B01D6
:103BA0004A015901FB01818D928D009721F040E07F
:103BB00050E0BA01DBD6F50184819581892B09F4A7
:103BC0004AC02801FBE14F0E511CC8010E94B844B5
:103BD000892B09F419C1C8010E94B844892B39F115
:103BE000B801CE0101960E94694CCD80DE80C114DF
:103BF000D104C1F040E050E06BE5CE0101960E9497
:103C0000644D3C01B60161507109CE0101960E94DC
:103C1000874C77FC07C01816190624F46816790635
:103C20000CF4CBC0CE0101960E943A4FD4CF60E68F
:103C300074E0CE0107960E944F4FBE01695F7F4F2F
:103C4000C5010E94804DD82ECE0107960E943A4FA2
:103C5000DD2009F4BACF60E674E0CE0143960E94FD
:103C60004F4F60E674E0CE010D960E944F4F580111
:103C70008BE1A80EB11CC8010E94B844892B81F1C8
:103C8000B801CE0101960E94694C8D819E81892BDD
:103C900011F140E050E06DE3CE0101960E94644DC9
:103CA00018161906C4F4BE016F5F7F4FC5010E944C
:103CB000254F18861F821A8619861C861B86BE0110
:103CC0006F5F7F4FCE0107960E94804ECE01019616
:103CD0000E943A4F0BC0CE0101960E943A4FCBCFC3
:103CE00060E674E0CE0107960E944F4F8B859C855D
:103CF000892BB9F140E050E06DE3CE0107960E94B8
:103D0000644D6C019C0140E050E0BE01695F7F4F53
:103D1000CE0101960E94634FBE016F5F7F4FCE01BF
:103D200043960E94804ECE0101960E943A4F2B8509
:103D30003C85A6014F5F5F4FBE01695F7F4FCE019B
:103D400001960E94634FBE016F5F7F4FCE010D96BB
:103D50000E94804ECE0101960E943A4FDD24D394FA
:103D600001C0D12CCE0107960E943A4FDD20B9F058
:103D7000BE016D5E7F4FC4010E94804D882309F40F
:103D80007ACFF70111821082138212821582148277
:103D9000BE01635F7F4FC7010E94804E05C060E691
:103DA00074E0C7010E944F4FCE010D960E943A4F1A
:103DB000CE0143960E943A4F2CC040E050E06BE5A4
:103DC000CE0101960E94644D6C016D817E8161502F
:103DD0007109CE0101960E94874C3C01BE016F5FC4
:103DE0007F4FC2010E94254FA6014F5F5F4F930195
:103DF000BE016F5F7F4FCE0107960E94634FCE01D9
:103E000001960E943A4F19CF60E674E0C7010E9404
:103E10004F4FC70168960FB6F894DEBF0FBECDBFF7
:103E2000DF91CF911F910F91FF90EF90DF90CF9096
:103E3000BF90AF909F908F907F906F905F904F90CA
:103E40000895CF93DF93EC01FB01828193819B83E3
:103E50008A8382E692E09983888384819581A68112
:103E6000B7818C839D83AE83BF8380859185A28536
:103E7000B38588879987AA87BB878DE03C96DE014A
:103E80001C9601900D928A95E1F7FB01818D928D30
:103E90009A8F898F80E992E09983888360E674E045
:103EA000CE014B96DF91CF910C944F4F0F931F9300
:103EB000CF93DF938C01D1E0D093D81088E6809324
:103EC000F910109203051092020560E086E095E07B
:103ED00018DDF8018081CAE06C2F0E94BC5D692F5B
:103EE000F0E18F9F600D112486E095E00ADDF80176
:103EF00081816C2F0E94BC5D692FF0E18F9F600D66
:103F0000112486E095E0FDDCF80182816C2F0E948F
:103F1000BC5D692FF0E18F9F600D112486E095E074
:103F2000F0DCF80183816C2F0E94BC5D692FF0E109
:103F30008F9F600D112486E095E0E3DCF801848119
:103F40006C2F0E94BC5D692FF0E18F9F600D1124E2
:103F500086E095E0D6DCF80185816C2F0E94BC5D7F
:103F6000692FF0E18F9F600D112486E095E0C9DC98
:103F7000F80186818E516C2F0E94BC5D692FF0E1A3
:103F80008F9F600D112486E095E0BBDC81E00E94EC
:103F9000404B882321F01092731080E003C0D0932F
:103FA000731081E0DF91CF911F910F9108951F92BF
:103FB0000F920FB60F9211240BB60F922F933F93CF
:103FC0004F935F936F937F938F939F93AF93BF9321
:103FD000EF93FF938091B900887F803609F49CC0ED
:103FE00068F5883209F45BC090F4803109F454C05C
:103FF00038F4882309F4F6C0883009F44DC0F5C0C0
:10400000883109F44CC0803209F45DC0EEC08034C0
:1040100009F468C048F4803309F455C0883309F0C6
:10402000E4C08093D710D8C0803509F44FC08835DC
:1040300009F45DC0883409F0D8C0D6C0883909F4C5
:10404000C7C0A8F4883709F467C038F4883609F483
:1040500063C0803709F460C0C8C0883809F4B8C0AC
:10406000803909F45FC0803809F0BFC05BC0803B75
:1040700009F486C038F4803A09F466C0883A09F435
:104080007FC0B3C0803C09F4A7C0883C09F4A4C039
:10409000883B09F48AC0A9C08091B41010C09091E7
:1040A000D6108091D510981770F5E091D61081E068
:1040B0008E0F8093D610F0E0EB54FF4E80818093FA
:1040C000BB0085EC86C08093D7108EC0E091D610DF
:1040D00081E08E0F8093D6108091BB00F0E0EB540E
:1040E000FF4E80839091D6108091D5106EC0E091E4
:1040F000D61081E08E0F8093D6108091BB00F0E047
:10410000EB54FF4E80838091000581116DC081E0EA
:104110008093FF0484EA61C083E0809301051092DC
:104120005210CFCF80915210803208F051C0E091F0
:10413000521081E08E0F809352108091BB00F0E00E
:10414000EE5CFF4E8083BDCF85EC8093BC00109267
:10415000010580915210803230F4E0915210F0E06D
:10416000EE5CFF4E10826091521070E0E0913010D2
:10417000F091311082E390E119951092521035C000
:1041800084E08093010510922F1010922E10E09180
:104190002C10F0912D10199580912E10811105C0D1
:1041A00081E080932E1010920C10E0912F1081E08E
:1041B0008E0F80932F10F0E0E45FFF4E808180939C
:1041C000BB0090912F1080912E10981708F479CF92
:1041D00085E88093BC0009C085EC8093BC001092F8
:1041E000010503C01092D71007DBFF91EF91BF913B
:1041F000AF919F918F917F916F915F914F913F917F
:104200002F910F900BBE0F900FBE0F901F9018951F
:104210004F925F926F927F928F929F92AF92BF92D6
:10422000CF92DF92EF92FF920F931F93CF93DF9382
:10423000EC016A017B012801390142305105610519
:10424000710510F480E072C089859A85AB85BC85C4
:104250000196A11DB11D84179507A607B70790F316
:104260008B889C88AD88BE888F89803129F4BB27D4
:10427000AF2D9E2D8D2D09C0DB01CA0147E0B695FB
:10428000A795979587954A95D1F7880E991EAA1EEE
:10429000BB1E8091120290911302A0911402B09162
:1042A000150288169906AA06BB0679F48F89803113
:1042B00099F4DD24EE24FF24C601880F991FFC0128
:1042C000ED50F24F5182408218C040E0C501B40168
:1042D0001BD28111EBCFB6CFE894C7F8DD24EE24D2
:1042E000FF24C601880F991F880F991FFC01ED500C
:1042F000F24F40825182628273828091001081600D
:10430000809300108A89823080F08D819E81AF81F8
:10431000B885880E991EAA1EBB1E8092011090922D
:104320000210A0920310B092041081E0DF91CF91AF
:104330001F910F91FF90EF90DF90CF90BF90AF90C3
:104340009F908F907F906F905F904F900895CF9344
:10435000DF93EC0180917910811109C081E0809395
:10436000791080911205909113050E94B64760E084
:104370008C81DF91CF910C94C933089561E0FC01E9
:1043800084810E94C9338091791081111092791033
:1043900008958EBD00000DB407FEFDCF8EB50895C3
:1043A0008FEFF7CF0F931F93CF93DF93EB010E9413
:1043B00059348B01F5DF8F3F49F00E945934601B5F
:1043C000710B6C177D07B0F380E001C081E0DF91D5
:1043D000CF911F910F910895CF93DF93EC018E81C0
:1043E000882379F08F8198859C012F5F3F4F388714
:1043F0002F838230924010F4D3DFF4CFCE01BEDFA2
:104400001E82DF91CF910895CF92DF92FF920F939A
:104410001F93CF93DF9300D01F92CDB7DEB76C010F
:10442000F62E29833A834B835C83D6DFC6018FDF68
:104430006CE271E0C601B6DF8F2D8064AADF08E16F
:1044400010E05C814B813A812981DA01C901002E9B
:1044500004C0B695A795979587950A94D2F72983B6
:104460003A834B835C8395DF0850110929813A8197
:104470004B815C81083F8FEF180739F7FF2029F047
:10448000E8E0FE1204C087E803C085E901C08FEFB1
:1044900080DF10E085DFF601828787FF04C01F3FC1
:1044A00011F01F5FF7CF0F900F900F900F90DF91DB
:1044B000CF911F910F91FF90DF90CF900895AF9211
:1044C000BF92CF92DF92EF92FF920F931F93CF9301
:1044D000DF93EC016901C801820F931F8130924084
:1044E00008F06AC08E81882371F088819981AA8141
:1044F000BB81481759076A077B0729F48F81988584
:10450000C816D90698F5488359836A837B838B85BF
:10451000833039F089E0440F551F661F771F8A9555
:10452000D1F79A01AB0161E1CE016EDF882319F06A
:1045300083E08D8341C00E9459345B0131DF8A875B
:104540008F3F49F40E9459346A197B096D327140DA
:10455000A8F38FE003C08E3F29F08DE08D83CE015C
:104560000DDF2AC018861F8281E08E838F81988597
:104570008C159D0538F414DF8F81988501969887F6
:104580008F83F4CF6701E00EF11ECE14DF0429F013
:1045900007DFF60181936F01F8CF8F819885080FAF
:1045A000191F18870F838985882319F00115124078
:1045B00038F0CE0111DF04C0CE01E0DE80E001C0A2
:1045C00081E0DF91CF911F910F91FF90EF90DF90ED
:1045D000CF90BF90AF900895EF92FF920F931F93EB
:1045E000CF93DF93EC017901411551056105710508
:1045F00011F482E134C08B85833039F089E0440FB7
:10460000551F661F771F8A95D1F79A01AB0168E1A4
:10461000CE01FADE882311F084E021C08EEFB9DEEE
:1046200087018EEFF81AF80181918F01B2DE0E1525
:104630001F05C9F78FEFADDE8FEFABDEB1DE8A87E6
:104640008F71853029F081E18D83CE0197DE08C01E
:1046500068E572E0CE01A6DE811106C085E18D839A
:10466000CE018CDE80E010C020E030E0A9016DE0DA
:10467000CE01CADE811103C093DE882311F084E1EC
:10468000EECFCE017BDE81E0DF91CF911F910F91C4
:10469000FF90EF90089580910010882399F1409148
:1046A000120250911302609114027091150223EFCF
:1046B0003DE08091F30F9091F40F8EDF811102C0E5
:1046C00080E0089540910110509102106091031014
:1046D00070910410411551056105710589F023EFB2
:1046E0003DE08091F30F9091F40F76DF882341F342
:1046F00010920110109202101092031010920410E8
:104700001092001081E008958F929F92AF92BF9215
:10471000EF92FF920F931F93CF934B015C01C42F35
:104720008091120290911302A0911402B09115028F
:1047300088159905AA05BB05F1F0ADDF811102C00E
:1047400080E01FC083EFE82E8DE0F82E00E012E03D
:1047500020E030E0B501A4018091F30F9091F40FB7
:10476000AEDE882369F38092120290921302A09227
:104770001402B092150280910010C82BC093001053
:1047800081E0CF911F910F91FF90EF90BF90AF907C
:104790009F908F9008958F929F92AF92BF92CF92E9
:1047A000DF92EF92FF920F931F93CF93DF93FC0161
:1047B00081859285A385B4850196A11DB11D8417BD
:1047C0009507A607B70710F480E05BC0838994893A
:1047D000A589B689C789C03129F4852E962EA72EC2
:1047E000BB2409C04A015B01C7E0B694A794979423
:1047F0008794CA95D1F7E9016A017B018F01BC0159
:10480000CD01680D791D8A1D9B1D8090120290902C
:104810001302A0901402B0901502681579058A055C
:104820009B0599F4F80187898031A1F4B701A601AD
:10483000552766277727440F551FFA01ED50F24F91
:1048400080819181A0E0B0E017C040E05DDF811180
:10485000E9CFBACFB701A6014F775527662777274B
:10486000440F551F440F551FFA01ED50F24F808140
:104870009181A281B381BF7088839983AA83BB830E
:1048800081E0DF91CF911F910F91FF90EF90DF902A
:10489000CF90BF90AF909F908F9008954F925F926E
:1048A0006F927F92AF92BF92CF92DF92EF92FF9280
:1048B0000F931F93CF93DF9300D01F92CDB7DEB736
:1048C0008C0149835A836B837C835901C12CD12C81
:1048D0007601412C82E0582E612C712C49815A813D
:1048E0006B817C819E012F5F3F4FC80154DF88237D
:1048F00051F1D301C201F801058404C0880F991F4A
:10490000AA1FBB1F0A94D2F7C80ED91EEA1EFB1EAF
:1049100049815A816B817C818789803129F088EFB8
:104920009FEFAFEFBFE004C088EF9FEFA0E0B0E0E3
:10493000481759076A077B0788F2F501C082D182C0
:10494000E282F38281E00F900F900F900F90DF9141
:10495000CF911F910F91FF90EF90DF90CF90BF907C
:10496000AF907F906F905F904F9008958F929F923D
:10497000AF92BF92CF92DF92EF92FF920F931F936D
:10498000CF93DF93EC018D81811102C080E076C06E
:104990000B891C892D893E890417150726073707BF
:1049A000A8F36A017B01823029F4CA86DB86EC8693
:1049B000FD860DC0C114D104E104F10451F41E823E
:1049C0001F82188619861A861B861C861D8681E022
:1049D00055C08A849B84AC84BD84EB8DFC8D258579
:1049E00030E0275F3F4FB501A401415051096109F3
:1049F0007109022E04C076956795579547950A94DC
:104A0000D2F7D701C6010197A109B10904C0B69533
:104A1000A795979587952A95D2F784179507A607A6
:104A2000B70720F089288A288B2849F44F89588DA8
:104A3000698D7A8D4E835F836887798704C0841B74
:104A4000950BA60BB70B4C015D018E010A5F1F4F42
:104A500081149104A104B10409F4A7CF4E815F81B0
:104A60006885798598018B8D9C8D95DE91E0891AFA
:104A70009108A108B1088111EBCF88CFDF91CF91C8
:104A80001F910F91FF90EF90DF90CF90BF90AF906C
:104A90009F908F9008953F924F925F926F927F9276
:104AA0008F929F92AF92BF92CF92DF92EF92FF923E
:104AB0000F931F93CF93DF93CDB7DEB72C970FB62D
:104AC000F894DEBF0FBECDBF5C01DC015B968D901C
:104AD0009C905C971696CD90DD90ED90FC90199788
:104AE000C114D104E104F10439F0BFEFCB1ADB0AA1
:104AF000EB0AFB0A312C07C0F401C080D180E280B0
:104B0000F38033243394F40181859285A385B485A1
:104B10009C01AD012F5F3F4F4F4F5F4F29873A8771
:104B20004B875C87260137011D821E821F821886F3
:104B3000F40181859285A385B4852D813E814F81C5
:104B40005885281739074A075B0708F060C0898530
:104B50009A85AB85BC858C159D05AE05BF0550F4C7
:104B600082E0C82ED12CE12CF12C92E0492E512C60
:104B7000612C712C9E012F5F3F4FB701A601C4012C
:104B80000ADE882309F443C089819A81AB81BC8104
:104B9000892B8A2B8B2B41F0260137019FEF491A75
:104BA000590A690A790A05C0C414D504E604F70451
:104BB00091F02D813E814F8158852F5F3F4F4F4FA0
:104BC0005F4F2D833E834F8358873FEFC31AD30A2D
:104BD000E30AF30AADCF0FEF1FEF2FEF3FE0B30172
:104BE000A201C40115DB882391F0D50116964D91E1
:104BF0005D916D917C911997411551056105710584
:104C000041F093018201C40103DB811102C080E005
:104C10002AC0D50116964D925D926D927C9219979D
:104C2000332051F0D301C2010196A11DB11DF40141
:104C300080839183A283B383F5018789908DA18DB1
:104C4000B28D892B8A2B8B2B69F4D50157964D9207
:104C50005D926D927C925A9714968C91149780680D
:104C600014968C9381E02C960FB6F894DEBF0FBE9D
:104C7000CDBFDF91CF911F910F91FF90EF90DF900B
:104C8000CF90BF90AF909F908F907F906F905F90EC
:104C90004F903F900895CF93DF93EC018D8188234F
:104CA00091F18C8187FF2CC06E857F8588899989D9
:104CB00041E02ADD882339F1EA8980E2E89FF001AA
:104CC0001124DF01AD50B24F1097E9F08D81823091
:104CD00050F44B895C896D897E895C964D935D9318
:104CE0006D937C935F978F89988DA98DBA8DED50C8
:104CF000F24F938F828FB58BA48B8C818F778C83AF
:104D0000DF91CF91C8CC80E0DF91CF9108958F9251
:104D10009F92AF92BF92CF92DF92EF92FF920F934A
:104D20001F93CF93DF9300D01F92CDB7DEB77C01E6
:104D300080E2689F6001112496012D50324FD90105
:104D40001B969C91917121F0842F827409F094C07C
:104D5000142FF701628B8091120290911302A0919F
:104D60001402B091150286879787A08BB18BF6014C
:104D7000ED50F24F4489558960E070E0BA01552743
:104D80004427D70157964D935D936D937C935A9723
:104D9000828D938DA0E0B0E0482B592B6A2B7B2BA2
:104DA000D70157964D935D936D937C935A97D90194
:104DB0001B968C91887159F4848D958DA68DB78D35
:104DC000F701838B948BA58BB68B81E011C080316A
:104DD00009F052C097012D5E3F4FD7015B968D9130
:104DE0009C915C975BDD882309F446C084E0F70161
:104DF0008583812F8F70D70114968C931497F701B8
:104E000016821782108611861A961D921D921D9287
:104E10001C921D9716FF32C015968C91813061F55A
:104E200011FF2AC0F7014389548965897689452B8A
:104E3000462B472B09F45CC040E050E0BA01C701A3
:104E400095DD8823C9F0F7018788908CA18CB28CFE
:104E5000C38CD48C82E090E0A0E0B0E0F6018083C7
:104E60009183A283B3839E012F5F3F4FB501A401BD
:104E7000C60191DC811104C080E03AC081E038C0F5
:104E800000E010E09801B501A401C601C1D9882352
:104E900099F389809A80AB80BC80D60157968C911B
:104EA000803129F088EF9FEFAFEFBFE004C088EFBB
:104EB0009FEFA0E0B0E088169906AA06BB0698F21C
:104EC000D70157961D921D921D921C925A97F70179
:104ED000138A148A158A168A848180688483C7019C
:104EE000DADE882349F240E050E0BA01C7013EDD36
:104EF0000F900F900F900F90DF91CF911F910F9116
:104F0000FF90EF90DF90CF90BF90AF909F908F90E9
:104F100008954F925F926F927F92AF92BF92CF921D
:104F2000DF92EF92FF920F931F93CF93DF93CDB752
:104F3000DEB72B970FB6F894DEBF0FBECDBF7C0156
:104F4000CE0101966C01FC0190E28BE08C0D9193F7
:104F50008E13FDCFDA0130E047E09D91992339F1BE
:104F60009E3219F0E4EDF3E00AC04A3009F46DC155
:104F700038E04AE0F2CF3196891709F466C184918E
:104F80008111F9CF431708F460C18FED890F8E3579
:104F900008F05BC181E0830FF601E30FF11D3FE9EB
:104FA000390F3A3108F490529083382FD6CF898147
:104FB000803209F44AC1B22E8B01DB015B968D91E0
:104FC0009C915C97F701948F838F16961D921D928A
:104FD0001D921C921997FB01128613861486158662
:104FE000712CF80182859385A485B5854389548900
:104FF0006589768984179507A607B70708F061C009
:1050000025E0B695A795979587952A95D1F7F82F1E
:10501000FF706F2ED80115968C91823008F415C15F
:10502000C8010E94EE4797FD10C1F8018285938563
:10503000A485B5854F96A11DB11D82879387A4874E
:10504000B587F0E26F9EC0011124BC016D50724F14
:105050006115710509F4F9C0DB012C91222319F0C7
:10506000253EC1F427C071100EC0F701628A40913D
:10507000120250911302609114027091150246873A
:105080005787608B718BFC01ED50F24F808181114D
:1050900013C015C04BE050E0C6010E94E75E892BAB
:1050A00009F09FCF8B2D8073803309F4CEC04B2D38
:1050B000662DC8C07720C9F27724739492CF7724E5
:1050C00073948B2D8271823109F0BFC07720C9F0B3
:1050D000D7011E966D917D918D919C91519741E0E4
:1050E00013DB882309F4B1C0F7016289F0E26F9FF6
:1050F000B00111246D50724F6115710509F077C030
:10510000A4C0D80115968C91823009F49EC0C801C4
:10511000C2DC882309F499C0D8015B96ED91FC911B
:105120005C9716964D905D906D907C901997B2E0CB
:105130004B1A510861087108058404C0440C551CC1
:10514000661C771C0A94D2F786859785A089B18959
:10515000480E591E6A1E7B1EA480E1E04E1A5108BB
:1051600061087108AA2001F196DA882309F46DC05C
:10517000E3EFFDE011922FE0E33FF207D9F7D3010F
:10518000C2018A0D911DA11DB11D80931202909341
:105190001302A0931402B093150280910010816055
:1051A00080930010AA94DECFD8015B96ED91FC911C
:1051B0005C9780E092E0A0E0B0E0058404C0880F36
:1051C000991FAA1FBB1F0A94D2F7F801438954897B
:1051D00065897689840F951FA61FB71F838B948BD3
:1051E000A58BB68BD70152961C9263EF7DE080E2CF
:1051F000FB0111928A95E9F78BE0F601DB01019042
:105200000D928A95E1F781E298E2DB0151969C9339
:105210008E93509720E038E01F963C932E931E9774
:1052200053969C938E93529759969C938E9358972E
:1052300057963C932E9356972EDA882331F04B2DB8
:10524000F7016289C70163DD01C080E02B960FB6CC
:10525000F894DEBF0FBECDBFDF91CF911F910F91AC
:10526000FF90EF90DF90CF90BF90AF907F906F90C6
:105270005F904F900895CF93DF93EC010CDD88236E
:1052800011F01D8281E0DF91CF9108952F923F921E
:105290004F925F926F927F928F929F92AF92BF9246
:1052A000CF92DF92EF92FF920F931F93CF93DF93F2
:1052B00000D01F92CDB7DEB78C015B011A01DC0173
:1052C00015968C9115978130C1F414968C9181FFBD
:1052D00014C082FF1AC0F801438954896589768910
:1052E00082859385A485B58584179507A607B7079A
:1052F00061F0C8013BDB811108C081E090E0F8015A
:105300009383828380E090E033C1610182C0D80141
:105310005B968D919C915C97FC01248121502A0120
:105320003B0139E076946794579447943A95D1F7C6
:10533000722E74207A01F1E0FF22772009F475C003
:1053400080E092E08E199F0946018C159D0508F4B6
:105350004C01D8015B962D913C915C9716968D91EE
:105360009D910D90BC91A02D0297A109B109F90161
:10537000058404C0880F991FAA1FBB1F0A94D2F787
:105380004685578560897189840F951FA61FB71FB1
:105390009C01AD01270D311D411D511D29013A010F
:1053A000811432E0930609F085C080911202909139
:1053B0001302A0911402B091150284159505A6055B
:1053C000B70559F48FEF9FEFDC01809312029093A1
:1053D0001302A0931402B09315029501B301A20128
:1053E0008091F30F9091F40FF7D8882309F485CFBB
:1053F0009EEFB91AC818D908F80182859385A4854B
:10540000B585880D991DA11DB11D82879387A4873D
:10541000B587D8011A964D915D916D917C911D973C
:10542000C114D10409F073CF83C0E114F10409F071
:1054300087CF16964D915D916D917C91199741158D
:1054400051056105710559F457968D919D910D9007
:10545000BC91A02D0097A105B10531F520C09E019A
:105460002F5F3F4F98D9882309F44DCF89819A81C6
:10547000AB81BC81F801238D348DF901278920315E
:1054800029F048EF5FEF6FEF7FE004C048EF5FEF78
:1054900060E070E084179507A607B70728F0C801F9
:1054A000FADA81114DCF29CFF80186839783A0873F
:1054B000B18746CFE114F10421F5D8011A964D9138
:1054C0005D916D917C911D9753968D919D910D905D
:1054D000BC91A02D481759076A077B0790F0DBD8CD
:1054E000882309F40ACF409212025092130260926C
:1054F0001402709215028091001081608093001058
:1055000007C041E0C301B201FFD8882309F4F5CEFA
:10551000D501F701ED50F24FCF01880D991DE81725
:10552000F90719F02D912193FACFA80CB91C62CF7D
:1055300053968D919D910D90BC91A02D8417950748
:10554000A607B70740F4F801438B548B658B768B25
:10555000848180688483D80114968C9183FD02C075
:10556000C10106C0C80197DB882309F4C6CEF8CF75
:105570000F900F900F900F90DF91CF911F910F918F
:10558000FF90EF90DF90CF90BF90AF909F908F9063
:105590007F906F905F904F903F902F900895CF93A2
:1055A000DF931F92CDB7DEB7698341E050E0BE01C3
:1055B0006F5F7F4F6BDE0F90DF91CF910895CF9299
:1055C000DF92FF920F931F93CF93DF93CDB7DEB798
:1055D000C755D1090FB6F894DEBF0FBECDBF8C0101
:1055E000F62E1C821B8284E4C82E82E0D82EDA823A
:1055F000C9821E82CE0101960E94BD4C8B819C8186
:105600009EAF8DAFDCAECBAE8D818FAF8E812196FC
:105610008FAF21974F81588569857A8525964CAF44
:105620005DAF6EAF7FAF25974B855C856D857E85C1
:1056300029964CAF5DAF6EAF7FAF29974F855889E4
:1056400069897A892D964CAF5DAF6EAF7FAF2D978C
:105650009B892E969FAF2E974C895D896E897F8995
:1056600062964CAF5DAF6EAF7FAF6297488D598D3C
:105670006A8D7B8D66964CAF5DAF6EAF7FAF6697E0
:105680002C8D3D8D68963FAF2EAF689719A218A25A
:10569000DF8ECE8E1BA2811113C0F80113821282FD
:1056A00088EE93E0A0E0B0E084839583A683B7837F
:1056B00080E592E091838083128E118E14865BC008
:1056C0002F2D41E154E0BE01655C7F4FCE014E9627
:1056D00020DC882311F3CE01CB96CDDD8F2D867093
:1056E000863039F449A95AA96BA97CA9CE014E96F6
:1056F0003DD988A199A19C838B8384E492E09A830D
:1057000089838AA18D838BA18E838CA19DA1AEA15B
:10571000BFA18F839887A987BA8788A599A5AAA5CD
:10572000BBA58B879C87AD87BE878CA59DA5AEA5A5
:10573000BFA58F87988BA98BBA8B88A98B8B89A9DA
:105740009AA9ABA9BCA98C8B9D8BAE8BBF8B8DA965
:105750009EA9AFA9B8AD888F998FAA8FBB8F89AD4D
:105760009AAD9D8F8C8F41E154E0BE016F5F7F4FFA
:10577000C8010E94B947C801C95ADF4F0FB6F89453
:10578000DEBF0FBECDBFDF91CF911F910F91FF9074
:10579000DF90CF900895EF92FF921F93CF93DF9306
:1057A000CDB7DEB7CE54D1090FB6F894DEBF0FBE29
:1057B000CDBF61E0CE01829602DFBE016E5D7F4FFC
:1057C000CE0101960E94211FEA8DFB8D309709F4CE
:1057D0003EC58581882309F43AC560E674E0CE01B0
:1057E000875B9F4F0E944F4F68E475E0CE018D5B51
:1057F0009F4F0E943F4F60917A10CE018D5B9F4F6B
:105800000E94434E60E475E0CE01CD960E943F4F6A
:105810009E012D5B3F4FAE01435C5F4FBE016F5F4A
:105820007F4FCE0182960E94B61DBE016E5D7F4FF6
:10583000CE01875B9F4F0E94804ECE0182960E94D0
:105840003A4FCE01CD960E943A4FE0907A10F12C5B
:10585000BE01675B7F4FCE0182960E94474FCE010B
:1058600082960E941D1011E31E9DF0011F9DF00DF8
:105870001124EF58F84F8083CE0182960E943A4F50
:1058800066E375E0CE01CD960E943F4F9E012D5BF1
:105890003F4FAE01435C5F4FBE016F5F7F4FCE0154
:1058A00082960E94B61DBE016E5D7F4FCE01875B62
:1058B0009F4F0E94804ECE0182960E943A4FCE01A9
:1058C000CD960E943A4FCE01875B9F4F0E949B1559
:1058D000E0917A101E9FF0011124EF58F84F648375
:1058E0006CE275E0CE01CD960E943F4F9E012D5B8C
:1058F0003F4FAE01435C5F4FBE016F5F7F4FCE01F4
:1059000082960E94B61DBE016E5D7F4FCE01875B01
:105910009F4F0E94804ECE0182960E943A4FCE0148
:10592000CD960E943A4FE0907A10F12CCE01875B21
:105930009F4F0E94990F1E9DF0011F9DF00D112495
:10594000EF58F84F65837683878390876FE175E022
:10595000CE01CD960E943F4F9E012D5B3F4FAE0181
:10596000435C5F4FBE016F5F7F4FCE0182960E9406
:10597000B61DBE016E5D7F4FCE01875B9F4F0E94BB
:10598000804ECE0182960E943A4FCE01CD960E9463
:105990003A4FE0907A10F12CCE01875B9F4F0E9426
:1059A000990F1E9DF0011F9DF00D1124EF58F84F27
:1059B000618772878387948765E175E0CE01CD9614
:1059C0000E943F4F9E012D5B3F4FAE01435C5F4FF6
:1059D000BE016F5F7F4FCE0182960E94B61DBE0151
:1059E0006E5D7F4FCE01875B9F4F0E94804ECE0140
:1059F00082960E943A4FCE01CD960E943A4FCE0138
:105A0000875B9F4F0E949B15E0917A101E9FF001CB
:105A10001124EF58F84F618B728B838B948B65E068
:105A200075E0CE01CD960E943F4F9E012D5B3F4F0A
:105A3000AE01435C5F4FBE016F5F7F4FCE01829628
:105A40000E94B61DBE016E5D7F4FCE01875B9F4FEA
:105A50000E94804ECE0182960E943A4FCE01CD9692
:105A60000E943A4FE0907A10F12CBE01675B7F4FA5
:105A7000CE0182960E94474FCE0182960E941D1051
:105A80001E9DF0011F9DF00D1124EF58F84F858BDE
:105A9000CE0182960E943A4F66EF74E0CE01CD9619
:105AA0000E943F4F9E012D5B3F4FAE01435C5F4F15
:105AB000BE016F5F7F4FCE0182960E94B61DBE0170
:105AC0006E5D7F4FCE01875B9F4F0E94804ECE015F
:105AD00082960E943A4FCE01CD960E943A4FE090B6
